{
  "contractName": "CloudResourceProvisioning",
  "abi": [
    {
      "inputs": [],
      "stateMutability": "nonpayable",
      "type": "constructor"
    },
    {
      "anonymous": false,
      "inputs": [
        {
          "indexed": true,
          "internalType": "address",
          "name": "user",
          "type": "address"
        },
        {
          "indexed": false,
          "internalType": "enum CloudResourceProvisioning.Permission",
          "name": "permission",
          "type": "uint8"
        }
      ],
      "name": "PermissionUpdate",
      "type": "event"
    },
    {
      "anonymous": false,
      "inputs": [
        {
          "indexed": false,
          "internalType": "uint256",
          "name": "resourceId",
          "type": "uint256"
        },
        {
          "indexed": false,
          "internalType": "address",
          "name": "requester",
          "type": "address"
        },
        {
          "indexed": false,
          "internalType": "string",
          "name": "resourceType",
          "type": "string"
        },
        {
          "indexed": false,
          "internalType": "uint256",
          "name": "quantity",
          "type": "uint256"
        }
      ],
      "name": "ResourceRequested",
      "type": "event"
    },
    {
      "anonymous": false,
      "inputs": [
        {
          "indexed": false,
          "internalType": "uint256",
          "name": "resourceId",
          "type": "uint256"
        }
      ],
      "name": "ResourceRequestedApproved",
      "type": "event"
    },
    {
      "inputs": [
        {
          "internalType": "address",
          "name": "",
          "type": "address"
        }
      ],
      "name": "authorizedUsers",
      "outputs": [
        {
          "internalType": "bool",
          "name": "",
          "type": "bool"
        }
      ],
      "stateMutability": "view",
      "type": "function"
    },
    {
      "inputs": [],
      "name": "owner",
      "outputs": [
        {
          "internalType": "address",
          "name": "",
          "type": "address"
        }
      ],
      "stateMutability": "view",
      "type": "function"
    },
    {
      "inputs": [
        {
          "internalType": "address",
          "name": "",
          "type": "address"
        }
      ],
      "name": "permissions",
      "outputs": [
        {
          "internalType": "enum CloudResourceProvisioning.Permission",
          "name": "",
          "type": "uint8"
        }
      ],
      "stateMutability": "view",
      "type": "function"
    },
    {
      "inputs": [
        {
          "internalType": "uint256",
          "name": "",
          "type": "uint256"
        }
      ],
      "name": "resources",
      "outputs": [
        {
          "internalType": "address",
          "name": "requester",
          "type": "address"
        },
        {
          "internalType": "string",
          "name": "resourceType",
          "type": "string"
        },
        {
          "internalType": "uint256",
          "name": "quantity",
          "type": "uint256"
        },
        {
          "internalType": "bool",
          "name": "isApproved",
          "type": "bool"
        }
      ],
      "stateMutability": "view",
      "type": "function"
    },
    {
      "inputs": [
        {
          "internalType": "string",
          "name": "_resourceType",
          "type": "string"
        },
        {
          "internalType": "uint256",
          "name": "_quantity",
          "type": "uint256"
        }
      ],
      "name": "requestResource",
      "outputs": [],
      "stateMutability": "nonpayable",
      "type": "function"
    },
    {
      "inputs": [
        {
          "internalType": "uint256",
          "name": "_resourceId",
          "type": "uint256"
        }
      ],
      "name": "approveResourceRequest",
      "outputs": [],
      "stateMutability": "nonpayable",
      "type": "function"
    }
  ],
  "bytecode": "0x608060405234801561001057600080fd5b50336000806101000a81548173ffffffffffffffffffffffffffffffffffffffff021916908373ffffffffffffffffffffffffffffffffffffffff160217905550610f53806100606000396000f3fe608060405234801561001057600080fd5b50600436106100625760003560e01c806301e88208146100675780631828983a14610097578063244d6daa146100c75780635a3d3e6b146100fa5780638da5cb5b14610116578063cf87798a14610134575b600080fd5b610081600480360381019061007c91906105d3565b610150565b60405161008e9190610677565b60405180910390f35b6100b160048036038101906100ac91906105d3565b610170565b6040516100be91906106ad565b60405180910390f35b6100e160048036038101906100dc91906106fe565b610190565b6040516100f194939291906107d9565b60405180910390f35b610114600480360381019061010f919061095a565b610275565b005b61011e6103a9565b60405161012b91906109b6565b60405180910390f35b61014e600480360381019061014991906106fe565b6103cd565b005b60016020528060005260406000206000915054906101000a900460ff1681565b60026020528060005260406000206000915054906101000a900460ff1681565b60036020528060005260406000206000915090508060000160009054906101000a900473ffffffffffffffffffffffffffffffffffffffff16908060010180546101d990610a00565b80601f016020809104026020016040519081016040528092919081815260200182805461020590610a00565b80156102525780601f1061022757610100808354040283529160200191610252565b820191906000526020600020905b81548152906001019060200180831161023557829003601f168201915b5050505050908060020154908060030160009054906101000a900460ff16905084565b6004600081548092919061028890610a60565b919050555060405180608001604052803373ffffffffffffffffffffffffffffffffffffffff1681526020018381526020018281526020016000151581525060036000600454815260200190815260200160002060008201518160000160006101000a81548173ffffffffffffffffffffffffffffffffffffffff021916908373ffffffffffffffffffffffffffffffffffffffff16021790555060208201518160010190816103389190610c54565b506040820151816002015560608201518160030160006101000a81548160ff0219169083151502179055509050507f482ac3bcb97c9d37a696a8ec3dca5e132a9c18f73432a3d7512b44996541981f60045433848460405161039d9493929190610d26565b60405180910390a15050565b60008054906101000a900473ffffffffffffffffffffffffffffffffffffffff1681565b60008054906101000a900473ffffffffffffffffffffffffffffffffffffffff1673ffffffffffffffffffffffffffffffffffffffff163373ffffffffffffffffffffffffffffffffffffffff161461045b576040517f08c379a000000000000000000000000000000000000000000000000000000000815260040161045290610de4565b60405180910390fd5b6004548111156104a0576040517f08c379a000000000000000000000000000000000000000000000000000000000815260040161049790610e50565b60405180910390fd5b60006003600083815260200190815260200160002090508060030160009054906101000a900460ff1615610509576040517f08c379a000000000000000000000000000000000000000000000000000000000815260040161050090610ee2565b60405180910390fd5b60018160030160006101000a81548160ff0219169083151502179055507f4a07d716fa37f8a25311b6dfa597068ae789e6664a713591251f00900e311495826040516105559190610f02565b60405180910390a15050565b6000604051905090565b600080fd5b600080fd5b600073ffffffffffffffffffffffffffffffffffffffff82169050919050565b60006105a082610575565b9050919050565b6105b081610595565b81146105bb57600080fd5b50565b6000813590506105cd816105a7565b92915050565b6000602082840312156105e9576105e861056b565b5b60006105f7848285016105be565b91505092915050565b7f4e487b7100000000000000000000000000000000000000000000000000000000600052602160045260246000fd5b600281106106405761063f610600565b5b50565b60008190506106518261062f565b919050565b600061066182610643565b9050919050565b61067181610656565b82525050565b600060208201905061068c6000830184610668565b92915050565b60008115159050919050565b6106a781610692565b82525050565b60006020820190506106c2600083018461069e565b92915050565b6000819050919050565b6106db816106c8565b81146106e657600080fd5b50565b6000813590506106f8816106d2565b92915050565b6000602082840312156107145761071361056b565b5b6000610722848285016106e9565b91505092915050565b61073481610595565b82525050565b600081519050919050565b600082825260208201905092915050565b60005b83811015610774578082015181840152602081019050610759565b60008484015250505050565b6000601f19601f8301169050919050565b600061079c8261073a565b6107a68185610745565b93506107b6818560208601610756565b6107bf81610780565b840191505092915050565b6107d3816106c8565b82525050565b60006080820190506107ee600083018761072b565b81810360208301526108008186610791565b905061080f60408301856107ca565b61081c606083018461069e565b95945050505050565b600080fd5b600080fd5b7f4e487b7100000000000000000000000000000000000000000000000000000000600052604160045260246000fd5b61086782610780565b810181811067ffffffffffffffff821117156108865761088561082f565b5b80604052505050565b6000610899610561565b90506108a5828261085e565b919050565b600067ffffffffffffffff8211156108c5576108c461082f565b5b6108ce82610780565b9050602081019050919050565b82818337600083830152505050565b60006108fd6108f8846108aa565b61088f565b9050828152602081018484840111156109195761091861082a565b5b6109248482856108db565b509392505050565b600082601f83011261094157610940610825565b5b81356109518482602086016108ea565b91505092915050565b600080604083850312156109715761097061056b565b5b600083013567ffffffffffffffff81111561098f5761098e610570565b5b61099b8582860161092c565b92505060206109ac858286016106e9565b9150509250929050565b60006020820190506109cb600083018461072b565b92915050565b7f4e487b7100000000000000000000000000000000000000000000000000000000600052602260045260246000fd5b60006002820490506001821680610a1857607f821691505b602082108103610a2b57610a2a6109d1565b5b50919050565b7f4e487b7100000000000000000000000000000000000000000000000000000000600052601160045260246000fd5b6000610a6b826106c8565b91507fffffffffffffffffffffffffffffffffffffffffffffffffffffffffffffffff8203610a9d57610a9c610a31565b5b600182019050919050565b60008190508160005260206000209050919050565b60006020601f8301049050919050565b600082821b905092915050565b600060088302610b0a7fffffffffffffffffffffffffffffffffffffffffffffffffffffffffffffffff82610acd565b610b148683610acd565b95508019841693508086168417925050509392505050565b6000819050919050565b6000610b51610b4c610b47846106c8565b610b2c565b6106c8565b9050919050565b6000819050919050565b610b6b83610b36565b610b7f610b7782610b58565b848454610ada565b825550505050565b600090565b610b94610b87565b610b9f818484610b62565b505050565b5b81811015610bc357610bb8600082610b8c565b600181019050610ba5565b5050565b601f821115610c0857610bd981610aa8565b610be284610abd565b81016020851015610bf1578190505b610c05610bfd85610abd565b830182610ba4565b50505b505050565b600082821c905092915050565b6000610c2b60001984600802610c0d565b1980831691505092915050565b6000610c448383610c1a565b9150826002028217905092915050565b610c5d8261073a565b67ffffffffffffffff811115610c7657610c7561082f565b5b610c808254610a00565b610c8b828285610bc7565b600060209050601f831160018114610cbe5760008415610cac578287015190505b610cb68582610c38565b865550610d1e565b601f198416610ccc86610aa8565b60005b82811015610cf457848901518255600182019150602085019450602081019050610ccf565b86831015610d115784890151610d0d601f891682610c1a565b8355505b6001600288020188555050505b505050505050565b6000608082019050610d3b60008301876107ca565b610d48602083018661072b565b8181036040830152610d5a8185610791565b9050610d6960608301846107ca565b95945050505050565b7f4f6e6c792074686520636f6e7472616374206f776e65722063616e207065726660008201527f6f726d2074686973206f7065726174696f6e0000000000000000000000000000602082015250565b6000610dce603283610745565b9150610dd982610d72565b604082019050919050565b60006020820190508181036000830152610dfd81610dc1565b9050919050565b7f496e76616c6964207265736f7572636520494400000000000000000000000000600082015250565b6000610e3a601383610745565b9150610e4582610e04565b602082019050919050565b60006020820190508181036000830152610e6981610e2d565b9050919050565b7f5265736f75726365207265717565737420616c726561647920617070726f766560008201527f6400000000000000000000000000000000000000000000000000000000000000602082015250565b6000610ecc602183610745565b9150610ed782610e70565b604082019050919050565b60006020820190508181036000830152610efb81610ebf565b9050919050565b6000602082019050610f1760008301846107ca565b9291505056fea26469706673582212209a21fa242f5576d3c931b726133c1066e53e09d1a2d71162329c831b6109692864736f6c63430008130033",
  "immutableReferences": {},
  "source": "// SPDX-License-Identifier: MIT\npragma solidity ^0.8.0;\n\ncontract CloudResourceProvisioning {\n    enum Permission { None, SysAdmin }\n\n    address public owner;\n\n    mapping(address => Permission) public permissions;\n    mapping(address => bool) public authorizedUsers;\n\n    struct CloudResource {\n        address requester;\n        string resourceType;\n        uint256 quantity;\n        bool isApproved;\n    }\n\n    mapping(uint256 => CloudResource) public resources;\n\n    uint256 private resourceIdCounter;\n\n    event PermissionUpdate(address indexed user, Permission permission);\n    event ResourceRequested(uint256 resourceId, address requester, string resourceType, uint256 quantity);\n    event ResourceRequestedApproved(uint256 resourceId);\n\n    constructor() {\n        owner = msg.sender;\n    }\n\n    modifier onlyOwner() {\n        require(msg.sender == owner, \"Only the contract owner can perform this operation\");\n        _;\n    }\n\n    function requestResource(string memory _resourceType, uint256 _quantity) external {\n        resourceIdCounter++;\n\n        resources[resourceIdCounter] = CloudResource(msg.sender, _resourceType, _quantity, false);\n\n        emit ResourceRequested(resourceIdCounter, msg.sender, _resourceType, _quantity);\n    }\n\n    function approveResourceRequest(uint256 _resourceId) public onlyOwner {\n        require(_resourceId <= resourceIdCounter, \"Invalid resource ID\");\n\n        CloudResource storage resource = resources[_resourceId];\n        require(!resource.isApproved, \"Resource request already approved\");\n\n        resource.isApproved = true;\n\n        emit ResourceRequestedApproved(_resourceId);\n    }\n}\n",
  "sourcePath": "/home/jahidul/Development/Blockchain/sdn-bc/contracts/CloudResourceProvisioning.sol",
  "compiler": {
    "name": "solc",
    "version": "0.8.19+commit.7dd6d404.Emscripten.clang"
  },
  "schemaVersion": "3.4.13",
  "updatedAt": "2023-07-23T05:50:58.616Z",
  "devdoc": {
    "kind": "dev",
    "methods": {},
    "version": 1
  },
  "userdoc": {
    "kind": "user",
    "methods": {},
    "version": 1
  }
}