{
  "contractName": "CloudResourceManagement",
  "abi": [
    {
      "inputs": [],
      "stateMutability": "nonpayable",
      "type": "constructor"
    },
    {
      "anonymous": false,
      "inputs": [
        {
          "indexed": false,
          "internalType": "string",
          "name": "srcIp",
          "type": "string"
        },
        {
          "indexed": false,
          "internalType": "string",
          "name": "dstIp",
          "type": "string"
        },
        {
          "indexed": false,
          "internalType": "string",
          "name": "action",
          "type": "string"
        }
      ],
      "name": "FlowRuleSet",
      "type": "event"
    },
    {
      "anonymous": false,
      "inputs": [
        {
          "indexed": true,
          "internalType": "address",
          "name": "user",
          "type": "address"
        },
        {
          "indexed": false,
          "internalType": "enum CloudResourceManagement.Permission",
          "name": "permission",
          "type": "uint8"
        }
      ],
      "name": "PermissionUpdate",
      "type": "event"
    },
    {
      "inputs": [
        {
          "internalType": "address",
          "name": "",
          "type": "address"
        }
      ],
      "name": "authorizedUsers",
      "outputs": [
        {
          "internalType": "bool",
          "name": "",
          "type": "bool"
        }
      ],
      "stateMutability": "view",
      "type": "function"
    },
    {
      "inputs": [],
      "name": "owner",
      "outputs": [
        {
          "internalType": "address",
          "name": "",
          "type": "address"
        }
      ],
      "stateMutability": "view",
      "type": "function"
    },
    {
      "inputs": [
        {
          "internalType": "address",
          "name": "",
          "type": "address"
        }
      ],
      "name": "permissions",
      "outputs": [
        {
          "internalType": "enum CloudResourceManagement.Permission",
          "name": "",
          "type": "uint8"
        }
      ],
      "stateMutability": "view",
      "type": "function"
    },
    {
      "inputs": [
        {
          "internalType": "address",
          "name": "user",
          "type": "address"
        },
        {
          "internalType": "enum CloudResourceManagement.Permission",
          "name": "permission",
          "type": "uint8"
        }
      ],
      "name": "updatePermission",
      "outputs": [],
      "stateMutability": "nonpayable",
      "type": "function"
    },
    {
      "inputs": [
        {
          "internalType": "address",
          "name": "userAddress",
          "type": "address"
        }
      ],
      "name": "addAuthorizedUser",
      "outputs": [],
      "stateMutability": "nonpayable",
      "type": "function"
    },
    {
      "inputs": [
        {
          "internalType": "address",
          "name": "userAddress",
          "type": "address"
        }
      ],
      "name": "removeAuthorizedUser",
      "outputs": [],
      "stateMutability": "nonpayable",
      "type": "function"
    },
    {
      "inputs": [
        {
          "internalType": "address",
          "name": "userAddress",
          "type": "address"
        }
      ],
      "name": "isAuthorized",
      "outputs": [
        {
          "internalType": "bool",
          "name": "",
          "type": "bool"
        }
      ],
      "stateMutability": "view",
      "type": "function"
    },
    {
      "inputs": [
        {
          "internalType": "string",
          "name": "srcIp",
          "type": "string"
        },
        {
          "internalType": "string",
          "name": "dstIp",
          "type": "string"
        },
        {
          "internalType": "string",
          "name": "action",
          "type": "string"
        }
      ],
      "name": "setFlowRule",
      "outputs": [],
      "stateMutability": "nonpayable",
      "type": "function"
    }
  ],
  "bytecode": "0x608060405234801561001057600080fd5b50336000806101000a81548173ffffffffffffffffffffffffffffffffffffffff021916908373ffffffffffffffffffffffffffffffffffffffff160217905550610c2c806100606000396000f3fe608060405234801561001057600080fd5b50600436106100885760003560e01c806389fabc801161005b57806389fabc80146101255780638da5cb5b14610141578063ee15c2771461015f578063fe9fbb801461017b57610088565b806301e882081461008d578063177d2a74146100bd5780631828983a146100d9578063252b67d614610109575b600080fd5b6100a760048036038101906100a291906106bc565b6101ab565b6040516100b49190610760565b60405180910390f35b6100d760048036038101906100d291906106bc565b6101cb565b005b6100f360048036038101906100ee91906106bc565b6102b4565b6040516101009190610796565b60405180910390f35b610123600480360381019061011e91906108f7565b6102d4565b005b61013f600480360381019061013a91906106bc565b6103a0565b005b610149610489565b60405161015691906109ad565b60405180910390f35b610179600480360381019061017491906109ed565b6104ad565b005b610195600480360381019061019091906106bc565b6105f4565b6040516101a29190610796565b60405180910390f35b60016020528060005260406000206000915054906101000a900460ff1681565b60008054906101000a900473ffffffffffffffffffffffffffffffffffffffff1673ffffffffffffffffffffffffffffffffffffffff163373ffffffffffffffffffffffffffffffffffffffff1614610259576040517f08c379a000000000000000000000000000000000000000000000000000000000815260040161025090610ab0565b60405180910390fd5b6001600260008373ffffffffffffffffffffffffffffffffffffffff1673ffffffffffffffffffffffffffffffffffffffff16815260200190815260200160002060006101000a81548160ff02191690831515021790555050565b60026020528060005260406000206000915054906101000a900460ff1681565b600260003373ffffffffffffffffffffffffffffffffffffffff1673ffffffffffffffffffffffffffffffffffffffff16815260200190815260200160002060009054906101000a900460ff16610360576040517f08c379a000000000000000000000000000000000000000000000000000000000815260040161035790610b1c565b60405180910390fd5b7ff0551166c6e80c255fa02a2ad897899165b5ddc9b3c2182cd2a72dae3af032e783838360405161039393929190610baa565b60405180910390a1505050565b60008054906101000a900473ffffffffffffffffffffffffffffffffffffffff1673ffffffffffffffffffffffffffffffffffffffff163373ffffffffffffffffffffffffffffffffffffffff161461042e576040517f08c379a000000000000000000000000000000000000000000000000000000000815260040161042590610ab0565b60405180910390fd5b6000600260008373ffffffffffffffffffffffffffffffffffffffff1673ffffffffffffffffffffffffffffffffffffffff16815260200190815260200160002060006101000a81548160ff02191690831515021790555050565b60008054906101000a900473ffffffffffffffffffffffffffffffffffffffff1681565b60008054906101000a900473ffffffffffffffffffffffffffffffffffffffff1673ffffffffffffffffffffffffffffffffffffffff163373ffffffffffffffffffffffffffffffffffffffff161461053b576040517f08c379a000000000000000000000000000000000000000000000000000000000815260040161053290610ab0565b60405180910390fd5b80600160008473ffffffffffffffffffffffffffffffffffffffff1673ffffffffffffffffffffffffffffffffffffffff16815260200190815260200160002060006101000a81548160ff0219169083600181111561059d5761059c6106e9565b5b02179055508173ffffffffffffffffffffffffffffffffffffffff167f1160e648b26906614eb985ad79d76d44bd07fd58be7a4f1931ee5edd388bfeb6826040516105e89190610760565b60405180910390a25050565b6000600260008373ffffffffffffffffffffffffffffffffffffffff1673ffffffffffffffffffffffffffffffffffffffff16815260200190815260200160002060009054906101000a900460ff169050919050565b6000604051905090565b600080fd5b600080fd5b600073ffffffffffffffffffffffffffffffffffffffff82169050919050565b60006106898261065e565b9050919050565b6106998161067e565b81146106a457600080fd5b50565b6000813590506106b681610690565b92915050565b6000602082840312156106d2576106d1610654565b5b60006106e0848285016106a7565b91505092915050565b7f4e487b7100000000000000000000000000000000000000000000000000000000600052602160045260246000fd5b60028110610729576107286106e9565b5b50565b600081905061073a82610718565b919050565b600061074a8261072c565b9050919050565b61075a8161073f565b82525050565b60006020820190506107756000830184610751565b92915050565b60008115159050919050565b6107908161077b565b82525050565b60006020820190506107ab6000830184610787565b92915050565b600080fd5b600080fd5b6000601f19601f8301169050919050565b7f4e487b7100000000000000000000000000000000000000000000000000000000600052604160045260246000fd5b610804826107bb565b810181811067ffffffffffffffff82111715610823576108226107cc565b5b80604052505050565b600061083661064a565b905061084282826107fb565b919050565b600067ffffffffffffffff821115610862576108616107cc565b5b61086b826107bb565b9050602081019050919050565b82818337600083830152505050565b600061089a61089584610847565b61082c565b9050828152602081018484840111156108b6576108b56107b6565b5b6108c1848285610878565b509392505050565b600082601f8301126108de576108dd6107b1565b5b81356108ee848260208601610887565b91505092915050565b6000806000606084860312156109105761090f610654565b5b600084013567ffffffffffffffff81111561092e5761092d610659565b5b61093a868287016108c9565b935050602084013567ffffffffffffffff81111561095b5761095a610659565b5b610967868287016108c9565b925050604084013567ffffffffffffffff81111561098857610987610659565b5b610994868287016108c9565b9150509250925092565b6109a78161067e565b82525050565b60006020820190506109c2600083018461099e565b92915050565b600281106109d557600080fd5b50565b6000813590506109e7816109c8565b92915050565b60008060408385031215610a0457610a03610654565b5b6000610a12858286016106a7565b9250506020610a23858286016109d8565b9150509250929050565b600082825260208201905092915050565b7f4f6e6c792074686520636f6e7472616374206f776e65722063616e207065726660008201527f6f726d207468697320616374696f6e2e00000000000000000000000000000000602082015250565b6000610a9a603083610a2d565b9150610aa582610a3e565b604082019050919050565b60006020820190508181036000830152610ac981610a8d565b9050919050565b7f556e617574686f72697a656420757365722e0000000000000000000000000000600082015250565b6000610b06601283610a2d565b9150610b1182610ad0565b602082019050919050565b60006020820190508181036000830152610b3581610af9565b9050919050565b600081519050919050565b60005b83811015610b65578082015181840152602081019050610b4a565b60008484015250505050565b6000610b7c82610b3c565b610b868185610a2d565b9350610b96818560208601610b47565b610b9f816107bb565b840191505092915050565b60006060820190508181036000830152610bc48186610b71565b90508181036020830152610bd88185610b71565b90508181036040830152610bec8184610b71565b905094935050505056fea26469706673582212208622ec21da6382fb1acfc6b3ab4e3cf3acbaf8a3ddd052c4234a69ef9db5d46d64736f6c63430008130033",
  "immutableReferences": {},
  "source": "// SPDX-License-Identifier: MIT\npragma solidity ^0.8.0;\n\ncontract CloudResourceManagement {\n    enum Permission { None, SysAdmin }\n\n    address public owner;\n\n    mapping(address => Permission) public permissions;\n    mapping(address => bool) public authorizedUsers;\n\n    event PermissionUpdate(address indexed user, Permission permission);\n    event FlowRuleSet(string srcIp, string dstIp, string action);\n\n    constructor() {\n        owner = msg.sender;\n    }\n\n    modifier onlyOwner() {\n        require(msg.sender == owner, \"Only the contract owner can perform this action.\");\n        _;\n    }\n\n    modifier onlyAuthorized() {\n        require(authorizedUsers[msg.sender], \"Unauthorized user.\");\n        _;\n    }\n\n    function updatePermission(address user, Permission permission) public onlyOwner {\n        permissions[user] = permission;\n        emit PermissionUpdate(user, permission);\n    }\n\n\n    function addAuthorizedUser(address userAddress) external onlyOwner {\n        authorizedUsers[userAddress] = true;\n    }\n\n    function removeAuthorizedUser(address userAddress) external onlyOwner {\n        authorizedUsers[userAddress] = false;\n    }\n\n    function isAuthorized(address userAddress) external view returns (bool) {\n        return authorizedUsers[userAddress];\n    }\n\n    function setFlowRule(string memory srcIp, string memory dstIp, string memory action) external onlyAuthorized {\n        emit FlowRuleSet(srcIp, dstIp, action);\n    }\n}\n",
  "sourcePath": "/home/jahidul/Development/Blockchain/sdn-bc/contracts/CloudResourceManagement.sol",
  "compiler": {
    "name": "solc",
    "version": "0.8.19+commit.7dd6d404.Emscripten.clang"
  },
  "schemaVersion": "3.4.13",
  "updatedAt": "2023-07-23T05:50:58.607Z",
  "devdoc": {
    "kind": "dev",
    "methods": {},
    "version": 1
  },
  "userdoc": {
    "kind": "user",
    "methods": {},
    "version": 1
  }
}